{
  "_format": "hh-sol-artifact-1",
  "contractName": "UserPasswordManager",
  "sourceName": "contracts/UserPasswordManager.sol",
  "abi": [
    {
      "inputs": [
        {
          "internalType": "address",
          "name": "_owner",
          "type": "address"
        }
      ],
      "stateMutability": "nonpayable",
      "type": "constructor"
    },
    {
      "anonymous": false,
      "inputs": [
        {
          "indexed": true,
          "internalType": "address",
          "name": "user",
          "type": "address"
        }
      ],
      "name": "PasswordDeleted",
      "type": "event"
    },
    {
      "anonymous": false,
      "inputs": [
        {
          "indexed": true,
          "internalType": "address",
          "name": "user",
          "type": "address"
        }
      ],
      "name": "PasswordDetailsUpdated",
      "type": "event"
    },
    {
      "anonymous": false,
      "inputs": [
        {
          "indexed": true,
          "internalType": "address",
          "name": "user",
          "type": "address"
        }
      ],
      "name": "PasswordStored",
      "type": "event"
    },
    {
      "anonymous": false,
      "inputs": [
        {
          "indexed": true,
          "internalType": "address",
          "name": "user",
          "type": "address"
        }
      ],
      "name": "UserRegistered",
      "type": "event"
    },
    {
      "inputs": [
        {
          "internalType": "uint256",
          "name": "index",
          "type": "uint256"
        }
      ],
      "name": "deletePassword",
      "outputs": [],
      "stateMutability": "nonpayable",
      "type": "function"
    },
    {
      "inputs": [],
      "name": "getPasswords",
      "outputs": [
        {
          "components": [
            {
              "internalType": "string",
              "name": "name",
              "type": "string"
            },
            {
              "internalType": "string",
              "name": "encryptedDataHash",
              "type": "string"
            }
          ],
          "internalType": "struct UserPasswordManager.PasswordData[]",
          "name": "",
          "type": "tuple[]"
        }
      ],
      "stateMutability": "view",
      "type": "function"
    },
    {
      "inputs": [
        {
          "internalType": "address",
          "name": "user",
          "type": "address"
        }
      ],
      "name": "getUserPublicKey",
      "outputs": [
        {
          "internalType": "string",
          "name": "",
          "type": "string"
        }
      ],
      "stateMutability": "view",
      "type": "function"
    },
    {
      "inputs": [
        {
          "internalType": "address",
          "name": "user",
          "type": "address"
        }
      ],
      "name": "isUserRegistered",
      "outputs": [
        {
          "internalType": "bool",
          "name": "",
          "type": "bool"
        }
      ],
      "stateMutability": "view",
      "type": "function"
    },
    {
      "inputs": [],
      "name": "owner",
      "outputs": [
        {
          "internalType": "address",
          "name": "",
          "type": "address"
        }
      ],
      "stateMutability": "view",
      "type": "function"
    },
    {
      "inputs": [
        {
          "internalType": "string",
          "name": "publicKey",
          "type": "string"
        }
      ],
      "name": "registerUser",
      "outputs": [],
      "stateMutability": "payable",
      "type": "function"
    },
    {
      "inputs": [
        {
          "internalType": "string",
          "name": "name",
          "type": "string"
        },
        {
          "internalType": "string",
          "name": "encryptedDataHash",
          "type": "string"
        }
      ],
      "name": "storePassword",
      "outputs": [],
      "stateMutability": "nonpayable",
      "type": "function"
    },
    {
      "inputs": [
        {
          "internalType": "uint256",
          "name": "index",
          "type": "uint256"
        },
        {
          "internalType": "string",
          "name": "name",
          "type": "string"
        },
        {
          "internalType": "string",
          "name": "encryptedDataHash",
          "type": "string"
        }
      ],
      "name": "updatePasswordDetails",
      "outputs": [],
      "stateMutability": "nonpayable",
      "type": "function"
    },
    {
      "inputs": [],
      "name": "withdraw",
      "outputs": [],
      "stateMutability": "nonpayable",
      "type": "function"
    }
  ],
  "bytecode": "0x608060405234801561001057600080fd5b5060405161112838038061112883398101604081905261002f9161006c565b6001600160a01b038116156100445780610046565b335b600080546001600160a01b0319166001600160a01b03929092169190911790555061009c565b60006020828403121561007e57600080fd5b81516001600160a01b038116811461009557600080fd5b9392505050565b61107d806100ab6000396000f3fe6080604052600436106100865760003560e01c80633eedffd9116100595780633eedffd91461014157806349f8880e14610161578063704f1b94146101835780638da5cb5b14610196578063c3b3863c146101ce57600080fd5b80630882efb51461008b57806311231fe0146100ad578063163f7522146100e35780633ccfd60b1461012c575b600080fd5b34801561009757600080fd5b506100ab6100a6366004610b64565b6101ee565b005b3480156100b957600080fd5b506100cd6100c8366004610bd1565b6102f4565b6040516100da9190610c47565b60405180910390f35b3480156100ef57600080fd5b5061011c6100fe366004610bd1565b6001600160a01b031660009081526001602052604090205460ff1690565b60405190151581526020016100da565b34801561013857600080fd5b506100ab6103ce565b34801561014d57600080fd5b506100ab61015c366004610c5a565b61051e565b34801561016d57600080fd5b506101766105de565b6040516100da9190610cbe565b6100ab610191366004610d43565b610799565b3480156101a257600080fd5b506000546101b6906001600160a01b031681565b6040516001600160a01b0390911681526020016100da565b3480156101da57600080fd5b506100ab6101e9366004610d80565b6108d3565b3360009081526001602052604090205460ff166102265760405162461bcd60e51b815260040161021d90610d99565b60405180910390fd5b3360009081526003602052604090205483106102755760405162461bcd60e51b815260206004820152600e60248201526d24b73b30b634b21034b73232bc1760911b604482015260640161021d565b33600090815260036020526040812080548590811061029657610296610dd0565b600091825260209091206002909102019050806102b38482610e6f565b50600181016102c28382610e6f565b5060405133907fa01e330bbf8bee10675c961504d3c31481bc2401f5e8ea7139c7c6c86e941c2090600090a250505050565b3360009081526001602052604090205460609060ff166103265760405162461bcd60e51b815260040161021d90610d99565b6001600160a01b0382166000908152600260205260409020805461034990610de6565b80601f016020809104026020016040519081016040528092919081815260200182805461037590610de6565b80156103c25780601f10610397576101008083540402835291602001916103c2565b820191906000526020600020905b8154815290600101906020018083116103a557829003601f168201915b50505050509050919050565b6000546001600160a01b031633146104285760405162461bcd60e51b815260206004820152601760248201527f4e6f742074686520636f6e7472616374206f776e65722e000000000000000000604482015260640161021d565b600047116104835760405162461bcd60e51b815260206004820152602260248201527f4e6f2066756e647320617661696c61626c6520666f7220776974686472617761604482015261361760f11b606482015260840161021d565b600080546040516001600160a01b039091169047908381818185875af1925050503d80600081146104d0576040519150601f19603f3d011682016040523d82523d6000602084013e6104d5565b606091505b505090508061051b5760405162461bcd60e51b81526020600482015260126024820152712bb4ba34323930bbb0b6103330b4b632b21760711b604482015260640161021d565b50565b3360009081526001602052604090205460ff1661054d5760405162461bcd60e51b815260040161021d90610d99565b6040805180820182528381526020808201849052336000908152600382529283208054600181018255908452922081519192839260029091029091019081906105969082610e6f565b50602082015160018201906105ab9082610e6f565b50506040513391507fc204fec4fed12d89a34e59340b9f4cc8a9e830daf5d856796d9f5d10ca7a278f90600090a2505050565b3360009081526001602052604090205460609060ff166106105760405162461bcd60e51b815260040161021d90610d99565b33600090815260036020908152604080832080548251818502810185019093528083529193909284015b82821015610790578382906000526020600020906002020160405180604001604052908160008201805461066d90610de6565b80601f016020809104026020016040519081016040528092919081815260200182805461069990610de6565b80156106e65780601f106106bb576101008083540402835291602001916106e6565b820191906000526020600020905b8154815290600101906020018083116106c957829003601f168201915b505050505081526020016001820180546106ff90610de6565b80601f016020809104026020016040519081016040528092919081815260200182805461072b90610de6565b80156107785780601f1061074d57610100808354040283529160200191610778565b820191906000526020600020905b81548152906001019060200180831161075b57829003601f168201915b5050505050815250508152602001906001019061063a565b50505050905090565b3360009081526001602052604090205460ff16156107f95760405162461bcd60e51b815260206004820152601860248201527f5573657220616c726561647920726567697374657265642e0000000000000000604482015260640161021d565b662386f26fc100003410156108765760405162461bcd60e51b815260206004820152603a60248201527f496e73756666696369656e7420726567697374726174696f6e206665652e204160448201527f74206c6561737420302e3031204554482072657175697265642e000000000000606482015260840161021d565b336000908152600160208181526040808420805460ff19169093179092556002905290206108a48282610e6f565b5060405133907f54db7a5cb4735e1aac1f53db512d3390390bb6637bd30ad4bf9fc98667d9b9b990600090a250565b3360009081526001602052604090205460ff166109025760405162461bcd60e51b815260040161021d90610d99565b3360009081526003602052604090205481106109515760405162461bcd60e51b815260206004820152600e60248201526d24b73b30b634b21034b73232bc1760911b604482015260640161021d565b336000908152600360205260409020805461096e90600190610f2f565b8154811061097e5761097e610dd0565b906000526020600020906002020160036000336001600160a01b03166001600160a01b0316815260200190815260200160002082815481106109c2576109c2610dd0565b60009182526020909120600290910201806109dd8382610f56565b506001818101906109f090840182610f56565b5050336000908152600360205260409020805490915080610a1357610a13611031565b60008281526020812060001990920191600283020190610a338282610a73565b610a41600183016000610a73565b5050905560405133907fc9136657b3a49b964bfc5c2a296352dadb93eb43d997f910bfeda105bd5a640590600090a250565b508054610a7f90610de6565b6000825580601f10610a8f575050565b601f01602090049060005260206000209081019061051b91905b80821115610abd5760008155600101610aa9565b5090565b634e487b7160e01b600052604160045260246000fd5b600082601f830112610ae857600080fd5b813567ffffffffffffffff80821115610b0357610b03610ac1565b604051601f8301601f19908116603f01168101908282118183101715610b2b57610b2b610ac1565b81604052838152866020858801011115610b4457600080fd5b836020870160208301376000602085830101528094505050505092915050565b600080600060608486031215610b7957600080fd5b83359250602084013567ffffffffffffffff80821115610b9857600080fd5b610ba487838801610ad7565b93506040860135915080821115610bba57600080fd5b50610bc786828701610ad7565b9150509250925092565b600060208284031215610be357600080fd5b81356001600160a01b0381168114610bfa57600080fd5b9392505050565b6000815180845260005b81811015610c2757602081850181015186830182015201610c0b565b506000602082860101526020601f19601f83011685010191505092915050565b602081526000610bfa6020830184610c01565b60008060408385031215610c6d57600080fd5b823567ffffffffffffffff80821115610c8557600080fd5b610c9186838701610ad7565b93506020850135915080821115610ca757600080fd5b50610cb485828601610ad7565b9150509250929050565b60006020808301818452808551808352604092508286019150828160051b87010184880160005b83811015610d3557888303603f1901855281518051878552610d0988860182610c01565b91890151858303868b0152919050610d218183610c01565b968901969450505090860190600101610ce5565b509098975050505050505050565b600060208284031215610d5557600080fd5b813567ffffffffffffffff811115610d6c57600080fd5b610d7884828501610ad7565b949350505050565b600060208284031215610d9257600080fd5b5035919050565b60208082526017908201527f55736572206973206e6f7420726567697374657265642e000000000000000000604082015260600190565b634e487b7160e01b600052603260045260246000fd5b600181811c90821680610dfa57607f821691505b602082108103610e1a57634e487b7160e01b600052602260045260246000fd5b50919050565b601f821115610e6a57600081815260208120601f850160051c81016020861015610e475750805b601f850160051c820191505b81811015610e6657828155600101610e53565b5050505b505050565b815167ffffffffffffffff811115610e8957610e89610ac1565b610e9d81610e978454610de6565b84610e20565b602080601f831160018114610ed25760008415610eba5750858301515b600019600386901b1c1916600185901b178555610e66565b600085815260208120601f198616915b82811015610f0157888601518255948401946001909101908401610ee2565b5085821015610f1f5787850151600019600388901b60f8161c191681555b5050505050600190811b01905550565b81810381811115610f5057634e487b7160e01b600052601160045260246000fd5b92915050565b818103610f61575050565b610f6b8254610de6565b67ffffffffffffffff811115610f8357610f83610ac1565b610f9181610e978454610de6565b6000601f821160018114610fc55760008315610fad5750848201545b600019600385901b1c1916600184901b17845561102a565b600085815260209020601f19841690600086815260209020845b83811015610fff5782860154825560019586019590910190602001610fdf565b508583101561101d5781850154600019600388901b60f8161c191681555b50505060018360011b0184555b5050505050565b634e487b7160e01b600052603160045260246000fdfea264697066735822122096d0f1c7c002079b5d8b129571241f574a42f4e338ea766d1988c7362d8d540664736f6c63430008110033",
  "linkReferences": {},
  "deployedLinkReferences": {}
}